{
  "contractName": "Voting",
  "abi": [
    {
      "inputs": [],
      "stateMutability": "nonpayable",
      "type": "constructor"
    },
    {
      "inputs": [],
      "name": "totalVotes",
      "outputs": [
        {
          "internalType": "uint256",
          "name": "",
          "type": "uint256"
        }
      ],
      "stateMutability": "view",
      "type": "function"
    },
    {
      "inputs": [
        {
          "internalType": "address",
          "name": "",
          "type": "address"
        }
      ],
      "name": "voters",
      "outputs": [
        {
          "internalType": "bool",
          "name": "",
          "type": "bool"
        }
      ],
      "stateMutability": "view",
      "type": "function"
    },
    {
      "inputs": [],
      "name": "vote",
      "outputs": [],
      "stateMutability": "nonpayable",
      "type": "function"
    }
  ],
  "bytecode": "0x608060405234801561000f575f80fd5b505f6001819055506103af806100245f395ff3fe608060405234801561000f575f80fd5b506004361061003f575f3560e01c80630d15fd7714610043578063632a9a5214610061578063a3ec138d1461006b575b5f80fd5b61004b61009b565b60405161005891906101cc565b60405180910390f35b6100696100a1565b005b61008560048036038101906100809190610243565b610198565b6040516100929190610288565b60405180910390f35b60015481565b5f803373ffffffffffffffffffffffffffffffffffffffff1673ffffffffffffffffffffffffffffffffffffffff1681526020019081526020015f205f9054906101000a900460ff161561012a576040517f08c379a0000000000000000000000000000000000000000000000000000000008152600401610121906102fb565b60405180910390fd5b60015f803373ffffffffffffffffffffffffffffffffffffffff1673ffffffffffffffffffffffffffffffffffffffff1681526020019081526020015f205f6101000a81548160ff0219169083151502179055506001805f82825461018f9190610346565b92505081905550565b5f602052805f5260405f205f915054906101000a900460ff1681565b5f819050919050565b6101c6816101b4565b82525050565b5f6020820190506101df5f8301846101bd565b92915050565b5f80fd5b5f73ffffffffffffffffffffffffffffffffffffffff82169050919050565b5f610212826101e9565b9050919050565b61022281610208565b811461022c575f80fd5b50565b5f8135905061023d81610219565b92915050565b5f60208284031215610258576102576101e5565b5b5f6102658482850161022f565b91505092915050565b5f8115159050919050565b6102828161026e565b82525050565b5f60208201905061029b5f830184610279565b92915050565b5f82825260208201905092915050565b7f596f75206861766520616c726561647920766f746564000000000000000000005f82015250565b5f6102e56016836102a1565b91506102f0826102b1565b602082019050919050565b5f6020820190508181035f830152610312816102d9565b9050919050565b7f4e487b71000000000000000000000000000000000000000000000000000000005f52601160045260245ffd5b5f610350826101b4565b915061035b836101b4565b925082820190508082111561037357610372610319565b5b9291505056fea2646970667358221220f5a667c384b2dbe5e4c29194f42f2f40366e661eb7446a24ecc17465ee70d22564736f6c63430008150033",
  "immutableReferences": {},
  "source": "// SPDX-License-Identifier: MIT\r\npragma solidity ^0.8.0;\r\n\r\ncontract Voting {\r\n    mapping(address => bool) public voters;\r\n    uint public totalVotes;\r\n\r\n    constructor() {\r\n        totalVotes = 0;\r\n    }\r\n\r\n    function vote() public {\r\n        require(!voters[msg.sender], \"You have already voted\");\r\n        voters[msg.sender] = true;\r\n        totalVotes += 1;\r\n    }\r\n}\r\n",
  "sourcePath": "E:\\Snipe IT Solutions\\blockchain-voting-system\\blockchain\\contracts\\Voting.sol",
  "compiler": {
    "name": "solc",
    "version": "0.8.21+commit.d9974bed.Emscripten.clang"
  },
  "schemaVersion": "3.4.16",
  "updatedAt": "2024-10-02T08:31:08.495Z",
  "devdoc": {
    "kind": "dev",
    "methods": {},
    "version": 1
  },
  "userdoc": {
    "kind": "user",
    "methods": {},
    "version": 1
  }
}